:020000040000FA
:04000000803118280B
:100008007E1480310B1F09280A2816284E01191C56
:100018000E280F2816280F1C12281328162881319D
:100028009C2180317E10090080311A2882315E229D
:100038008031F800ED30840081308500333086004F
:10004800003087001030823152228031F601F701EA
:1000580020308400003085001330823158228031EE
:100068007E104001813166294001C801FF30C3007C
:100078004308C7008C19412842284428C801C80AE7
:100088000C19472848284C280230C3004308C800E8
:100098008C184F28502854280330C3004308C80040
:1000A8000C18572858285C280430C3004308C80097
:1000B8004808031960286128D128C901C90A782885
:1000C8008E110E158E140E1486288E150E118E1490
:1000D8000E1486288E150E158E100E1486288E1571
:1000E8000E158E140E1086284908013A0319642843
:1000F800033A03196928013A03196E28073A0319C4
:10010800732886288C1989288A288B28A4280C19F2
:100118008E288F289028A4288C189328942895280E
:10012800A4280C18982899289A28A4280130C300D4
:100138004308C90705304902031CA328A4287828C6
:100148008E110E118E100E1049080319AC28AD2817
:10015800D12848080319B128B228D1280530490206
:100168000318B728B828D128053048020318BD2835
:10017800BE28D1284908C3000230C335890BC128DD
:100188002E304307C40048084407C50045088600C8
:1001980087010108C6004608C70047080800F100A3
:1001A80018294001B101B10A26297808F000700821
:1001B800B200E72840013108003A0319E728013A5C
:1001C8000319D928E728B101262977080319ED284A
:1001D800EE2814294001200843018C000130F60262
:1001E8007608031DF828F928FB28F7012629F201CB
:1001F8000D297208213E860087010108F000720867
:10020800203E86008701700881000130F0007008E8
:10021800F20776087202031C12291329FD282629E1
:10022800453043018C0026297108003A0319D52866
:10023800013A0319E928033A0319DE28013A031998
:10024800262926290800803138208131F5007508D3
:100258004001AA005D292A0A0319332934294129B2
:100268002A08F5007508AB000230F5007508B000E3
:10027800C8300032890B3D296529FF30F500750823
:10028800AB0065292B082A0603194B294C295B2941
:10029800B0012B086529B001AA01AB010030AF00FD
:1002A8000030AE000030AD000030AC006529FF30F2
:1002B80065293008003A03192F29023A03194629FB
:1002C8004F2908008131FD2181318B170B1721300F
:1002D80082314022813182310D2281314001CC00AE
:1002E8004C08CD004D0803197A297B2991290B3038
:1002F800760203188029812991290130CC004C0805
:10030800F7004D08CC007608203E860087014C088F
:1003180081000130CC004C08F607770803199529AD
:10032800962998290E166F290E126F2980311828E0
:100338004E010F1043010C08F3007308F4000F1D61
:10034800A629A729B9298F1EAA29AB29B429111FC3
:10035800AE29AF29B42903308031D3208131CA298D
:1003680001308031D3208131CA298F1ABC29BD2997
:10037800C22900308031D3208131CA297408F300A2
:100388007308F80002308031D32081314301101600
:100398000800400198019A012F3092002030940003
:1003A8007E01CE01B8010F30B900CF01BA01D001EA
:1003B8007D014508C0390538C5004608C0391538DB
:1003C800C60016307E01A5000F3094001530950048
:1003D800080031343234333441343434353436342B
:1003E800423437343834393443342A3430342334BB
:1003F800443482314A2281318131CD2181318231A7
:100408002A22813182311C22813182313522813187
:1004180008008131272182314001CA004A08CB00F7
:100428004B0A031D182A192A1A2ACB014B0808005F
:1004380043018F012630900091019201FE308E0019
:1004480016308D004E010F1019140800623051014A
:100458008D008F01910102309300900120309200AD
:100468000800083042019F0080309D0024309E0023
:1004780019309B009C010800F5004E010F1E452A0B
:10048800462A412A750842019A0008004F01960140
:100498009701980199019A019B010800FE0012003A
:1004A8001E00FE0B532A0034640080010131890BC1
:0604B800592A00345534FE
:020000040001F9
:0A000E00EC3FFE3F9F3FFF1FFF3F46
:00000001FF
